{
  "contractName": "Calculator",
  "abi": [
    {
      "inputs": [
        {
          "internalType": "int256",
          "name": "a",
          "type": "int256"
        },
        {
          "internalType": "int256",
          "name": "b",
          "type": "int256"
        }
      ],
      "name": "add",
      "outputs": [
        {
          "internalType": "int256",
          "name": "",
          "type": "int256"
        }
      ],
      "stateMutability": "pure",
      "type": "function",
      "constant": true
    },
    {
      "inputs": [
        {
          "internalType": "int256",
          "name": "a",
          "type": "int256"
        },
        {
          "internalType": "int256",
          "name": "b",
          "type": "int256"
        }
      ],
      "name": "sub",
      "outputs": [
        {
          "internalType": "int256",
          "name": "",
          "type": "int256"
        }
      ],
      "stateMutability": "pure",
      "type": "function",
      "constant": true
    },
    {
      "inputs": [
        {
          "internalType": "int256",
          "name": "a",
          "type": "int256"
        },
        {
          "internalType": "int256",
          "name": "b",
          "type": "int256"
        }
      ],
      "name": "mul",
      "outputs": [
        {
          "internalType": "int256",
          "name": "",
          "type": "int256"
        }
      ],
      "stateMutability": "pure",
      "type": "function",
      "constant": true
    },
    {
      "inputs": [
        {
          "internalType": "int256",
          "name": "a",
          "type": "int256"
        },
        {
          "internalType": "int256",
          "name": "b",
          "type": "int256"
        }
      ],
      "name": "div",
      "outputs": [
        {
          "internalType": "int256",
          "name": "",
          "type": "int256"
        }
      ],
      "stateMutability": "pure",
      "type": "function",
      "constant": true
    }
  ],
  "bytecode": "0x608060405234801561001057600080fd5b506104df806100206000396000f3fe608060405234801561001057600080fd5b506004361061004c5760003560e01c80634350913814610051578063a5f3c23b14610081578063adefc37b146100b1578063bbe93d91146100e1575b600080fd5b61006b600480360381019061006691906101fb565b610111565b604051610078919061024a565b60405180910390f35b61009b600480360381019061009691906101fb565b61016f565b6040516100a8919061024a565b60405180910390f35b6100cb60048036038101906100c691906101fb565b61018a565b6040516100d8919061024a565b60405180910390f35b6100fb60048036038101906100f691906101fb565b6101a5565b604051610108919061024a565b60405180910390f35b6000808203610155576040517f08c379a000000000000000000000000000000000000000000000000000000000815260040161014c906102c2565b60405180910390fd5b600082846101639190610340565b90508091505092915050565b600080828461017e91906103aa565b90508091505092915050565b600080828461019991906103ee565b90508091505092915050565b60008082846101b49190610431565b90508091505092915050565b600080fd5b6000819050919050565b6101d8816101c5565b81146101e357600080fd5b50565b6000813590506101f5816101cf565b92915050565b60008060408385031215610212576102116101c0565b5b6000610220858286016101e6565b9250506020610231858286016101e6565b9150509250929050565b610244816101c5565b82525050565b600060208201905061025f600083018461023b565b92915050565b600082825260208201905092915050565b7f4469766973696f6e206279207a65726f206e6f7420616c6c6f77656400000000600082015250565b60006102ac601c83610265565b91506102b782610276565b602082019050919050565b600060208201905081810360008301526102db8161029f565b9050919050565b7f4e487b7100000000000000000000000000000000000000000000000000000000600052601260045260246000fd5b7f4e487b7100000000000000000000000000000000000000000000000000000000600052601160045260246000fd5b600061034b826101c5565b9150610356836101c5565b925082610366576103656102e2565b5b600160000383147f80000000000000000000000000000000000000000000000000000000000000008314161561039f5761039e610311565b5b828205905092915050565b60006103b5826101c5565b91506103c0836101c5565b9250828201905082811215600083121683821260008412151617156103e8576103e7610311565b5b92915050565b60006103f9826101c5565b9150610404836101c5565b925082820390508181126000841216828213600085121516171561042b5761042a610311565b5b92915050565b600061043c826101c5565b9150610447836101c5565b9250828202610455816101c5565b91507f8000000000000000000000000000000000000000000000000000000000000000841460008412161561048d5761048c610311565b5b82820584148315176104a2576104a1610311565b5b509291505056fea2646970667358221220611d5b91a2af3de83ac0e93eb43199fd9493f45a20bde605d49a6d5ba8e1d6a564736f6c63430008130033",
  "immutableReferences": {},
  "source": "// SPDX-License-Identifier: MIT\r\n\r\npragma solidity >0.7.0 <=0.9.0;\r\n\r\ncontract Calculator {\r\n\r\n    // Addition function\r\n    function add(int256 a, int256 b) public pure returns (int256) {\r\n        int256 sum = a + b;\r\n        return sum;\r\n    }\r\n\r\n    // Subtraction function\r\n    function sub(int256 a, int256 b) public pure returns (int256) {\r\n        int256 difference = a - b;\r\n        return difference;\r\n    }\r\n\r\n    // Multiplication function\r\n    function mul(int256 a, int256 b) public pure returns (int256) {\r\n        int256 product = a * b;\r\n        return product;\r\n    }\r\n\r\n    // Division function (with check for division by zero)\r\n    function div(int256 a, int256 b) public pure returns (int256) {\r\n        require(b != 0, \"Division by zero not allowed\");\r\n        int256 quotient = a / b;\r\n        return quotient;\r\n    }\r\n}\r\n",
  "sourcePath": "C:\\Users\\ASUS\\Downloads\\dCalc\\contracts\\Calculator.sol",
  "compiler": {
    "name": "solc",
    "version": "0.8.19+commit.7dd6d404.Emscripten.clang"
  },
  "schemaVersion": "3.4.16",
  "updatedAt": "2024-10-01T05:45:25.165Z",
  "networkType": "ethereum",
  "devdoc": {
    "kind": "dev",
    "methods": {},
    "version": 1
  },
  "userdoc": {
    "kind": "user",
    "methods": {},
    "version": 1
  }
}